:100000000C942A010C9456010C9456010C94560140
:100010000C9456010C9456010C9456010C94560104
:100020000C9456010C9456010C9456010C945601F4
:100030000C9456010C9456010C9456010C945601E4
:100040000C9456010C9456010C9456010C945601D4
:100050000C9456010C9456010C9456010C94E71B19
:100060000C9456010C94A21E0C9456010C9456014B
:100070000C9456010C9456010C9456010C945601A4
:100080000C9456010C9456010C9456010C94560194
:100090000C94D71E0C9456010C9456010C945601E6
:1000A0000C9456010C9456010C9456010C94560174
:1000B0000C9456010C9456010C9456010C94560164
:1000C0000C9456010C9456010C9456010C940C1F80
:1000D0000C9456010C9456010C94411F0C9456013B
:1000E0000C9456017C3C3E5E2B3D3F2F5B5D3B2CD0
:1000F0002A225C0000002100240027002A002D0095
:100100003000330001010000040107010A01000072
:100110002200250028002B002E00310034000201AF
:100120000000050108010B0100002000230026004B
:1001300029002C002F0032000001000003010601FD
:10014000090105050505070508080808020202025D
:100150000A0A080804040404010101010101010163
:100160000303030303030303040707070C0C0C0C2E
:100170000C0C0C0C02020202060606060606060617
:100180000B0B0B0B0B0B0B0B0102102020080810A4
:1001900020401020408002010201080402010102F7
:1001A00004081020408080402010080402018004D0
:1001B000020180402010080402010804020101022B
:1001C0000408102040800102040810204080000034
:1001D000090A02080B0C0D070603040100000000C9
:1001E000000000000000000000000000000000000F
:1001F00000000000000000000000100F0E000000D2
:1002000000000000000000000000000000000000EE
:1002100000000000494E46494E4954594E414ECDCA
:10022000CCCC3D0AD7233C17B7D13877CC2B3295AD
:1002300095E6241FB14F0A000020410000C842008B
:10024000401C4620BCBE4CCA1B0E5AAEC59D740055
:100250004402412011241FBECFEFD1E2DEBFCDBF4B
:1002600000E00CBF16E0A0E0B2E0EEE7F5E700E04A
:100270000BBF02C007900D92A635B107D9F71FE05A
:10028000A6E5B6E001C01D92A034B107E1F712E087
:10029000C4E5D2E004C02297FE010E94C737C035F2
:1002A000D107C9F70E94E01B0C94BD3A0C940000E2
:1002B000FC018130910579F0823091051CF40097A2
:1002C00041F012C08230910541F08330910561F414
:1002D0000AC0149A09C05F9A07C080910B0180621E
:1002E00080930B0101C0459AEE0FFF1FEE0FFF1F19
:1002F000E851F94F80819181A281B3810196A11DBE
:10030000B11D80839183A283B38314985F988091F9
:100310000B018F7D80930B01459808950F931F93D8
:10032000CF93DF938C01EB012130310519F02FEFD2
:100330003FEF4BC081E030C0DF01AA0FBB1FAA0F07
:10034000BB1FAC0FBD1F12966D917C911397601768
:1003500071070CF53197EE0FFF1FEE0FFF1FEC0F2B
:10036000FD1F228133810190F081E02D021B130BD0
:100370008D919C918E1B9F0B621B730B9C01029FA6
:10038000C001039F900D129F900D11240E946137B0
:100390006E0F7F1F16C08F5FE82FF0E0E417F507A0
:1003A0005CF2E417F50719F060E070E00AC0415014
:1003B0005040440F551F440F551FC40FD51F68816F
:1003C00079812FEF33E0261B370BC901DF91CF91E5
:1003D0001F910F910895CF93DF93EB0121303105E9
:1003E00019F06FEF7FEF4CC02FEF33E0281B390B74
:1003F00081E031C0DF01AA0FBB1FAA0FBB1FAC0FEA
:10040000BD1F6D917C911197261737071CF5319709
:10041000EE0FFF1FEE0FFF1FEC0FFD1F40815181FC
:100420000280F381E02D241B350B12968D919C9157
:1004300013978E1B9F0B641B750BAC01249FC0018F
:10044000259F900D349F900D11240E9461376E0FEF
:100450007F1F16C08F5FE82FF0E0E417F50754F216
:10046000E417F50719F060E070E00AC04150504011
:10047000440F551F440F551FC40FD51F6A817B8140
:10048000CB01DF91CF9108950F931F9306E415E000
:1004900085E090E0B8014DE350E021E030E00E94BB
:1004A0008E019093520A8093510A83E191E0B80142
:1004B0004DE350E021E030E00E948E019093540A19
:1004C0008093530A1092660A1092670A10926A0A81
:1004D00010926C0A82E090E0A0E0B0E080936D0A98
:1004E00090936E0AA0936F0AB093700A1092840AD8
:1004F00080E596E090938C0A80938B0A10928F0A85
:100500009093A80A8093A70A1092AB0A1F910F91AB
:1005100008950E942F1C20916E0630916F06409125
:10052000700650917106621B730B840B950B645F10
:1005300071408040904008F471C00E942F1C60936D
:100540006E0670936F06809370069093710682E03A
:100550000E94C51C2FEF33E0281B390B3093480A4B
:100560002093470A8091510A9091520A821793076B
:1005700024F01092460A1092450A8091530A9091F5
:10058000540A2817390724F01092460A1092450A97
:100590008091450A9091460A281739071CF02C983B
:1005A0002F9802C02C9A2F9A0E942F1C209172061D
:1005B000309173064091740650917506621B730B5F
:1005C000840B950B685873418040904038F10E942D
:1005D0002F1C609372067093730680937406909339
:1005E000750681E00E94C51C2FEF33E0281B390BF4
:1005F00030934C0A20934B0A8091490A90914A0A01
:100600002817390734F0809102018F7D8093020111
:1006100008958091020180628093020108952F92D3
:100620003F924F925F926F927F928F929F92AF9282
:10063000BF92CF92DF92EF92FF920F931F93DF93BF
:10064000CF93CDB7DEB7C257D0400FB6F894DEBF18
:100650000FBECDBFAD969FAF8EAFAD976091C80670
:100660007091C9068091CA069091CB062091D80658
:100670003091D9064091DA065091DB060E94783617
:10068000181614F4169A01C016986091CC06709151
:10069000CD068091CE069091CF062091DC06309158
:1006A000DD064091DE065091DF060E94783618166E
:1006B00014F4A19A01C0A1986091D0067091D1065E
:1006C0008091D2069091D3062091E0063091E10608
:1006D0004091E2065091E3060E947836181624F401
:1006E00080910B01877F03C080910B01886080930C
:1006F0000B016091D4067091D5068091D606909139
:10070000D7062091E4063091E5064091E606509127
:10071000E7060E947836181614F4439A01C04398ED
:1007200080915A06882359F4659B09C0AD96AEADF9
:10073000BFADAD971D921D921D921C921397809193
:100740005B06882361F48091000181FF08C0AD96AB
:10075000EEADFFADAD97148215821682178280919F
:100760005C06882361F44B9B0AC0AD96AEADBFAD6D
:10077000AD9718961D921D921D921C921B97AD96D7
:10078000AEADBFADAD970D911D912D913C91A5964C
:100790000CAF1DAF2EAF3FAFA59701151105210579
:1007A000310509F01298AD96EEADFFADAD973496D8
:1007B000FAAFE9AFAD96AEADBFADAD9714960D9162
:1007C0001D912D913C911797A9960CAF1DAF2EAF9F
:1007D0003FAFA997011511052105310509F0419891
:1007E000AD96EEADFFADAD973896F8AFEFABAD96E9
:1007F000AEADBFADAD9718960D911D912D913C9169
:100800001B97A1960CAF1DAF2EAF3FAFA19701155F
:1008100011052105310529F080910B018F77809317
:100820000B01AD96EEADFFADAD973C96AB96FFAF2D
:10083000EEAFAB97AD96AEADBFADAD971C964D91FB
:100840005D916D917C911F97411551056105710571
:1008500009F04798FE01319680E1DF011D928A95EB
:10086000E9F7A5960CAD1DAD2EAD3FADA59709835B
:100870001A832B833C83A9968CAD9DADAEADBFADE5
:10088000A9978D839E83AF83B887A1960CAD1DADCC
:100890002EAD3FADA19709871A872B873C874D87DF
:1008A0005E876F87788BA5960CAD1DAD2EAD3FADE5
:1008B000A597081719072A073B0720F5A1960CAD45
:1008C0001DAD2EAD3FADA197081719072A073B07AD
:1008D00040F4481759076A077B0718F421E030E015
:1008E0004FC0A5968CAD9DADAEADBFADA597A996F9
:1008F0000CAD1DAD2EAD3FADA99780179107A20796
:10090000B307D8F0A5968CAD9DADAEADBFADA597A4
:10091000A1960CAD1DAD2EAD3FADA19708171907DF
:100920002A073B0750F4481759076A077B0728F442
:1009300063961FAE1EAE63972EC0A1968CAD9DAD83
:10094000AEADBFADA197A5960CAD1DAD2EAD3FAD23
:10095000A59780179107A207B307B8F0A9960CAD29
:100960001DAD2EAD3FADA99780179107A207B30724
:1009700060F0481759076A077B0738F422E030E037
:1009800063963FAF2EAF639706C083E090E0639617
:100990009FAF8EAF63976396EEADFFAD6397EE0F9B
:1009A000FF1FEE0FFF1FEC0FFD1F0181128123813E
:1009B00034810BAB1CAB2DAB3EAB36952795179511
:1009C00007956D960CAF1DAF2EAF3FAF6D976A9632
:1009D000EFAC6A976B96FFAC6B976C960FAD6C970C
:1009E0006D961FAD6D9720E030E080E090E0DE0175
:1009F00051966396EEADFFAD63972E173F0739F022
:100A0000FD01E80FF91FE082F18202831383FC01EC
:100A1000E851F94F10821182128213822F5F3F4FEB
:100A200004962430310529F76396EEADFFAD639748
:100A3000EE0FFF1FEE0FFF1FE850F94F00811181ED
:100A40002281338169960CAF1DAF2EAF3FAF6997FE
:100A50000093C4061093C5062093C6063093C706BC
:100A60002D961FAE2D97411551056105710521F099
:100A700011E02D961FAF2D976396EEADFFAD6397F6
:100A8000EE0FFF1FEE0FFF1FEA57F94F70806180D6
:100A90002281AE962FAFAE973381AF963FAFAF971F
:100AA0007092B6066092B7062093B8063093B906E6
:100AB0006396CEACDFAC6397272D362DAE964FAD47
:100AC000AE97AF965FADAF97C901DA017C018D019A
:100AD000AA24BB2488249924AD96EEADFFADAD9732
:100AE000E80DF91D208131814281538121153105A5
:100AF0004105510551F163966EAD7FAD6397A61622
:100B0000B70619F1F401EA57F94F2080318042808D
:100B10005380C201B1010E943637F601EE0FFF1F6C
:100B2000EE0FFF1FAD96AEADBFADAD97EA0FFB1F49
:100B300020813181428153810E947437E216F3068D
:100B40000407150710F4650102C017012801089475
:100B5000A11CB11CE4E0F0E08E0E9F1EF4E0AF1685
:100B6000B10419F082017101B7CF60E071EE85EF39
:100B700095E0272D362DAE964FADAE97AF965FAD73
:100B8000AF970E947437C901DA0128968CAF9DAFE8
:100B9000AEAFBFAF28978601000F111F000F111FC6
:100BA000AD962EAD3FADAD97200F311F3AAB29ABBF
:100BB0001EAE1DAE1CAE1BAEAD96EEADFFADAD973D
:100BC0004BAD5CADE40FF51F608071808280938037
:100BD000611471048104910409F44FC0C201B10190
:100BE0000E94C6355B016C01A9A9BAA96D917D91DE
:100BF0008D919C910E94C6357B018C01C401B3018B
:100C00000E94C6359B01AC01C801B7010E942D3579
:100C10009B01AC01C601B5010E947C360E949A3549
:100C20009B01AC01E1E2F0E0EC0FFD1F0BAD1CAD50
:100C3000E00FF11F60837183828393836DAD7EAD7E
:100C400063968EAD9FAD639768177907B1F42093D3
:100C5000B6063093B7064093B8065093B90660E0E5
:100C600071EE85EF95E00E947437C901DA0128968C
:100C70008CAF9DAFAEAFBFAF2897ADADBEAD1196F7
:100C8000BEAFADAFEBADFCAD3496FCAFEBAF1497A0
:100C900009F092CFB8EF4B2EB6E05B2EA1E26A2EA0
:100CA000712C6C0E7D1EE2961FAEE297E3961FAE8E
:100CB000E39722243324CC24DD24AD96EEADFFADA2
:100CC000AD97EC0DFD1D80819181A281B3810097CC
:100CD000A105B10509F477C02D96FFAD2D97FF232F
:100CE00061F1D2016D917D918D919C910E94C835E9
:100CF0009B01AC0160E27CEB8EEB9CE40E942D3505
:100D00007B018C01F30160817181828193810E945A
:100D1000C6359B01AC0160E27CEB8EEB9CEC0E9443
:100D20002D359B01AC01C801B7010E94C5347B0180
:100D30008C01F601EA56F94F2BC0D2016D917D91DD
:100D40008D919C910E94C8359B01AC0160E27CEBC7
:100D50008EEB9CE40E942D357B018C01F3016081B8
:100D60007181828193810E94C6359B01AC0160E252
:100D70007CEB8EEB9CEC0E942D359B01AC01C801F5
:100D8000B7010E94C5347B018C01F601EA55F94F89
:100D900060817181828193810E94C6359B01AC0183
:100DA000C801B7010E942D354B015C01E2966FAD81
:100DB000E297E3967FADE397C101A50194010E94FC
:100DC000783618164CF4E2968FADE297E3969FAD15
:100DD000E397D1014C015D0104E010E0C00ED11E8B
:100DE000400E511E600E711E10E1C116D10451F06B
:100DF000D501C401E2968FAEE297E3969FAFE397E9
:100E00001D015BCF63960EAD1FAD6397000F111FE1
:100E1000000F111FF801E850F94F60817181828144
:100E200093810E94C8359B01AC0160E27CEB8EEBA4
:100E30009CE40E942D356B017C010C0F1D1FD80115
:100E400091966D917D918D919C9194970E94C6355C
:100E50009B01AC0160E27CEB8EEB9CEC0E942D359B
:100E60009B01AC01C701B6010E94C534A5019401E4
:100E70000E942D350E949A356093BA067093BB0686
:100E80008093BC069093BD060E94C63520E030E0FA
:100E900040E05FE30E947C36A50194010E947C360D
:100EA0007B018C0128966CAD7DAD8EAD9FAD2897F2
:100EB0000E94C8359B01AC01C801B7010E94C5342E
:100EC000A50194010E947C360E9495350E94C6358A
:100ED0002EEA37E441E85FE30E947C360E949A35AF
:100EE0006093BE067093BF068093C0069093C106C0
:100EF00081E08093C2068091B6069091B706A091DA
:100F0000B806B091B90669960CAD1DAD2EAD3FADDA
:100F1000699780179107A207B30710F41092C206D1
:100F20000E943D1C23966CAF7DAF8EAF9FAF239781
:100F300024E630E040E050E00E94363760935E06E1
:100F400070935F06809360069093610660936206DB
:100F500070936306809364069093650660936606BB
:100F600070936706809368069093690660936A069B
:100F700070936B0680936C0690936D0660910C07DE
:100F800070910D0780910E0790910F0720E030E0DF
:100F90004AE754E40E942D3520E030E04AE754E46B
:100FA0000E94783618163CF12D962FAD2D972223EE
:100FB00031F12D961FAE2D97A9964CAD5DAD6EAD5E
:100FC0007FADA997A1968CAD9DADAEADBFADA197FC
:100FD000480F591F6A1F7B1FA5960CAD1DAD2EAD86
:100FE0003FADA597400F511F621F731F411551055B
:100FF0006105710521F011E02D961FAF2D9760E07E
:1010000071EE85EF95E069962CAD3DAD4EAD5FADCF
:1010100069970E947437C901DA012C968CAF9DAF95
:10102000AEAFBFAF2C9763968EAD9FAD6397880F21
:10103000991F880F991FAD962EAD3FADAD97280F24
:10104000391F65963FAF2EAF65974BA95CA96DA977
:101050007EA961964CAF5DAF6EAF7FAF61972224E2
:101060003324210124961FAE2497BC01625A794F84
:10107000E1967FAF6EAFE197DBC28091C306882314
:1010800061F424967FAD2497772339F42D968FADA4
:101090002D97882311F00E9489028091C20688232F
:1010A00009F432C1211431044104510489F48091BE
:1010B000B6069091B706A091B806B091B906809394
:1010C000C4069093C506A093C606B093C7062CC16C
:1010D0008091BE069091BF06A091C006B091C10656
:1010E00082159305A405B50508F48CC06091BA0675
:1010F0007091BB068091BC069091BD0624E630E05D
:1011000040E050E00E949637122F032FF42EE52E78
:101110000E943D1C23962CAD3DAD4EAD5FAD239797
:10112000621B730B840B950B24E630E040E050E02B
:101130000E947437CA01B901212F302F4F2D5E2D27
:101140000E94363724E630E040E050E00E947437D9
:1011500028966CAD7DAD8EAD9FAD2897260F371FBD
:10116000481F591F60E071EE85EF95E00E949637A9
:10117000C901DA018093C4069093C506A093C60600
:10118000B093C70669960CAD1DAD2EAD3FAD699706
:1011900080179107A207B30750F41092C30600937B
:1011A000C4061093C5062093C6063093C7066D96F5
:1011B0002CAD3DAD4EAD5FAD6D97221633064406A6
:1011C000550608F4B1C02092BE063092BF06409288
:1011D000C0065092C1062091C4063091C5064091C8
:1011E000C6065091C70660E071EE85EF95E00E945B
:1011F0007437C901DA012C968CAF9DAFAEAFBFAF8B
:101200002C9790C061964CAD5DAD6EAD7FAD619792
:1012100084179507A607B70708F476C08091C30620
:10122000882371F40E943D1C23966CAF7DAF8EAF76
:101230009FAF239751E05093C30624965FAF249746
:101240006091BA067091BB068091BC069091BD0674
:1012500024E630E040E050E00E949637122F032F42
:10126000F42EE52E0E943D1C23962CAD3DAD4EADD7
:101270005FAD2397621B730B840B950B24E630E064
:1012800040E050E00E947437CA01B901212F302F8D
:101290004F2D5E2D0E94363724E630E040E050E0CE
:1012A0000E9474372C966CAD7DAD8EAD9FAD2C97A2
:1012B000621B730B840B950B9B01AC0160E071EE1C
:1012C00085EF95E00E949637C901DA018093C40644
:1012D0009093C506A093C606B093C7062091B606A4
:1012E0003091B7064091B8065091B90628173907D2
:1012F0004A075B07C8F42093C4063093C5064093A1
:10130000C6065093C70610C069968CAD9DADAEADB4
:10131000BFAD69978093C4069093C506A093C60697
:10132000B093C7061092C3066596EEADFFAD659704
:1013300080819181A281B3810097A105B10509F453
:1013400077C180915A068823C9F4659B17C06396BC
:101350000EAD1FAD6397012B09F497C1AD96EEADAD
:10136000FFADAD9780819181A281B3810097A105E6
:10137000B10521F0108211821282138280915B06E6
:101380008823C9F48091000181FF15C06396EEADFA
:10139000FFAD6397319709F478C1E9ADFAAD80816B
:1013A0009181A281B3810097A105B10521F010823E
:1013B00011821282138280915C068823B9F44B9BC0
:1013C00015C06396EEADFFAD6397329709F45DC12A
:1013D000EFA9F8AD80819181A281B3810097A10529
:1013E000B10521F010821182128213820E943D1CED
:1013F00024E630E040E050E00E943637E196EEAD62
:10140000FFADE1972081318142815381621B730BD3
:10141000840B950B6093190770931A0780931B0731
:1014200090931C0797FFE2C00E943D1C24E630E029
:1014300040E050E00E943637E196AEADBFADE19797
:101440006D937D938D939C9313978091C406909197
:10145000C506A091C606B091C706B695A795979503
:1014600087958093190790931A07A0931B07B09351
:101470001C07BCC00197A109B1096596EEADFFAD8F
:10148000659780839183A283B3838091190790919C
:101490001A07A0911B07B0911C072091C406309138
:1014A000C5064091C6065091C706821B930BA40B3C
:1014B000B50B8093190790931A07A0931B07B0935D
:1014C0001C0763968EAD9FAD63970E945801E1960D
:1014D000EEADFFADE19780819181A281B381209132
:1014E000C4063091C5064091C6065091C706820FCA
:1014F000931FA41FB51F80839183A283B383AD96EE
:101500006EAC7FACAD9761E1862E912C8C0E9D1E4A
:101510006E010894C11CD11CAA24BB2463960EAD95
:101520001FAD6397A016B106E1F1F30180819181AF
:10153000A281B3810097A105B10599F1D401ED9085
:10154000FD900D911C91F60180819181A281B38162
:10155000E81AF90A0A0B1B0BD401ED92FD920D93C8
:101560001C93139717FF1DC0C5010E945801F3017A
:1015700080819181A281B3810197A109B109808302
:101580009183A283B3832BA93CA94DA95EA9E20E46
:10159000F31E041F151FD401ED92FD920D931C93B1
:1015A00013970894A11CB11CE4E0F0E06E0E7F1EBE
:1015B0008E0E9F1ECE0EDF1EF4E0AF16B10409F0B2
:1015C000ADCF0894211C311C411C511C61960CADFF
:1015D0001DAD2EAD3FAD6197015010402040304011
:1015E00061960CAF1DAF2EAF3FAF619720911907E9
:1015F00030911A0740911B0750911C078091C40637
:101600009091C506A091C606B091C7062817390764
:101610004A075B0768F06596EEADFFAD6597808180
:101620009181A281B3810097A105B10509F022CF74
:10163000E9ADFAAD80819181A281B381EFA9F8ADC6
:101640002081318142815381820F931FA41FB51FD6
:10165000AD96EEADFFADAD972081318142815381D2
:10166000820F931FA41FB51FAB96EEADFFADAB97D6
:101670002081318142815381820F931FA41FB51FA6
:101680000097A105B10509F0F8CC80910B018068A5
:1016900080930B0158EC652E56E0752E48EDC42E54
:1016A00046E0D42E38EE832E36E0932E29EBA22E80
:1016B00024E0B22ED601ED90FD900D911C91F30126
:1016C0006081718182819381A80197010E9478369F
:1016D0001816DCF4D4016D917D918D919C910E943E
:1016E000C635F50120813181428153810E942D351B
:1016F0009B01AC01C801B7010E94C534D6016D93AE
:101700007D938D939C93139719C0F401608171812F
:10171000828193810E94C635D5012D913D914D91D5
:101720005C910E942D359B01AC01C801B7010E945C
:10173000C434F601608371838283938304E010E0F4
:10174000600E711EC00ED11E800E911EA00EB11E25
:1017500018ED611616E0710609F0ACCFCE58DF4FD8
:101760000FB6F894DEBF0FBECDBFCF91DF911F91B2
:101770000F91FF90EF90DF90CF90BF90AF909F9030
:101780008F907F906F905F904F903F902F90089533
:101790002F923F924F925F926F927F928F929F9281
:1017A000AF92BF92CF92DF92EF92FF920F931F936F
:1017B000DF93CF93CDB7DEB766970FB6F894DEBF51
:1017C0000FBECDBF0AE5E02E06E0F02E00E010E0EF
:1017D000DD24D394F801E853F94FD801A852B94F4A
:1017E00060817181828193812D913D914D915C91B8
:1017F0000E94783688231CF0F701D08202C0F701DE
:1018000010820C5F1F4F0894E11CF11C0031110580
:1018100009F76091C8067091C9068091CA06909137
:10182000CB0620E030E048E453E40E9478361816F6
:1018300064F480E090E0A8E4B3E48093C806909359
:10184000C906A093CA06B093CB066091CC067091EE
:10185000CD068091CE069091CF0620E030E048E49E
:1018600053E40E947836181664F480E090E0A8E40F
:10187000B3E48093CC069093CD06A093CE06B093AC
:10188000CF066091D0067091D1068091D2069091DA
:10189000D30620E030E048EC52E40E947836181677
:1018A00064F480E090E0A8ECB2E48093D0069093DA
:1018B000D106A093D206B093D306AA24BB24F50187
:1018C000E853F94FD501A852B94F608171818281E7
:1018D00093812D913D914D915C910E94C4346B0197
:1018E0007C01F501EF5DF84F608371838283938300
:1018F00020E030E040E050E00E947836181624F0F6
:10190000F7FAF094F7F8F09485010A58194FF501A9
:10191000E754FB4FC701B6012081318142815381D9
:101920000E947C360E949A35F8016083718382831D
:10193000938384E090E0A80EB91E90E1A916B1044B
:1019400009F0BDCF80913F05909140050A9734F48E
:101950008AE090E09093400580933F05A090210796
:10196000B0902207C0902307D0902407C601B5018C
:1019700020E030E040E050E00E947836181654F045
:10198000C601B50120E030E040E050E00E9429357A
:101990008823BCF560912507709126078091270761
:1019A0009091280720E030E040E050E00E94293587
:1019B000882339F56091290770912A0780912B07B8
:1019C00090912C0720E030E040E050E00E94293563
:1019D0008823B9F4C601B50120E030E040E050E0D2
:1019E0000E947836181624F0D7FAD094D7F8D094FD
:1019F000A0921D07B0921E07C0921F07D092200729
:101A000010C1C601B50120E030E040E050E00E9486
:101A10002935882309F060C0E0902507F09026075B
:101A20000091270710912807C801B70120E030E096
:101A300040E050E00E947836181654F0C801B70113
:101A400020E030E040E050E00E9429358823E4F4B3
:101A50006091290770912A0780912B0790912C079C
:101A600020E030E040E050E00E942935882361F416
:101A7000C801B70120E030E040E050E00E94783635
:101A800018160CF4C6C0C1C0C801B70120E030E090
:101A900040E050E00E9429358823F1F4E0902907C6
:101AA000F0902A0700912B0710912C07C801B7016D
:101AB00020E030E040E050E00E94783618160CF448
:101AC000A8C0C801B70120E030E040E050E00E942B
:101AD000293588230CF499C0C601B50120E030E017
:101AE00040E050E00E94783618163CF1C601B5017E
:101AF00020E030E040E050E00E94293587FD1DC025
:101B0000E0902507F09026070091270710912807FD
:101B1000C801B70120E030E040E050E00E94783694
:101B200018165CF0C801B70120E030E040E050E05A
:101B30000E94293588230CF04BC0E0902507F090D7
:101B400026070091270710912807C601B501A601B5
:101B500095010E947C365B016C01C801B701A801A8
:101B600097010E947C369B01AC01C601B5010E9421
:101B7000C5340E94E3367B018C01A0902907B09008
:101B80002A07C0902B07D0902C07C601B50120E092
:101B900030E040E050E00E9478361816D4F5C801D5
:101BA000B701A80197010E947C367B018C01C60118
:101BB000B501A60195010E947C369B01AC01C801CC
:101BC000B7010E94C5340E94E3367B018C0121C01D
:101BD000E0902D07F0902E0700912F07109130070D
:101BE000C801B70120E030E040E050E00E947836C4
:101BF00018167CF0C801B70120E030E040E050E06A
:101C00000E94293588230CF010C117FB109517F995
:101C10001095E0921D07F0921E0700931F07109386
:101C2000200760913F0570914005882777FD8095DA
:101C3000982F0E94C83520EC31EE44E65CE40E9407
:101C40002D359B01AC0160911D0770911E0780919D
:101C50001F07909120070E942D353B014C011A8AE5
:101C6000198AE989FA89EA58F94F80819181A2811C
:101C7000B3810097A105B10509F463C0E989FA8928
:101C8000EF5DF84FA080B180C280D380C601B5015E
:101C900020E030E040E050E00E94783618161CF456
:101CA0008601750106C08601750117FB109517F9AD
:101CB0001095C401B30120EC31EE44E65CE40E94CF
:101CC0002D356B8B7C8B8D8B9E8BE989FA89E75345
:101CD000FB4F2080318042805380C801B7012B899F
:101CE0003C894D895E890E942D35A20191010E9497
:101CF0007836181634F5C601B50120E030E040E032
:101D000050E00E947836181624F0D7FAD094D7F80D
:101D1000D094C401B301A20191010E942D357B0131
:101D20008C01C601B5012B893C894D895E890E94D1
:101D30002D359B01AC01C801B7010E947C363B01E7
:101D40004C01E989FA893496FA8BE98B709709F08E
:101D500088CFC301D40180930C0790930D07A09303
:101D60000E07B0930F07EE24FF24F701EA58F94F4E
:101D70006081718182819381611571058105910571
:101D8000C1F087010850194F0E94C6359B01AC0174
:101D9000C401B3010E942D3520E030E048EC52E44C
:101DA0000E947C360E949535F8016083718382839E
:101DB000938384E090E0E80EF91E90E1E916F104C7
:101DC000A1F68091760690917706A0917806B09161
:101DD000790689839A83AB83BC8380917A0690913C
:101DE0007B06A0917C06B0917D068D839E83AF8398
:101DF000B88780917E0690917F06A0918006B09171
:101E0000810689879A87AB87BC87809182069091EB
:101E10008306A0918406B09185068D879E87AF8743
:101E2000B88BCE0101960E940F0366960FB6F89408
:101E3000DEBF0FBECDBFCF91DF911F910F91FF90FD
:101E4000EF90DF90CF90BF90AF909F908F907F905A
:101E50006F905F904F903F902F9008950E942F1C9D
:101E60006093550A7093560A8093570A9093580AC4
:101E7000E091390AF0913A0AEF5CF54F80818823AE
:101E800031F489EE9CE060E072E00E9497220895B0
:101E90000F931F9309EE1CE0C8010E942220C80185
:101EA00063E072E00E9448214091140750911507A9
:101EB00060911607709117074F5F5F4F6F4F7F4F0D
:101EC000C8012AE030E00E94A2220E942E0F1F913A
:101ED0000F910895682F2091390A30913A0A80E6CF
:101EE00090E0AC01249FC001259F900D349F900D80
:101EF00011248F5C984F70E00E94953A9C0190935A
:101F0000440A8093430A80E0232B09F081E008957E
:101F10008091430A9091440A019660E070E00E942B
:101F2000CB370895BF92CF92DF92EF92FF920F933B
:101F30001F93DF93CF930F92CDB7DEB780E6C82E05
:101F4000D12CBB24B3946EC14D3051F04A3341F0D3
:101F50002091400A3091410A2F3531050CF444C1DB
:101F6000E091400AF091410A309709F44AC2A091E9
:101F70003B0AB0913C0AAC9D7001AD9DF00CBC9D3C
:101F8000F00C1124EE0DFF1DEF5CF84F10828091D4
:101F9000420A882309F021C1AF5CB54F1C9287012A
:101FA0000F5C184FC8016EE470E00E94953A9C01E6
:101FB000009709F4AAC09093440A8093430A2F5FC4
:101FC0003F4F201B310B2E0D3F1DC9018F5C984FD9
:101FD00060E070E04AE050E00E94393960931007F9
:101FE00070931107809312079093130720911407A1
:101FF0003091150740911607509117072F5F3F4FFB
:102000004F4F5F4F6217730784079507C9F08091A0
:102010003B0A90913C0A9C012C9DC0012D9D900D86
:102020003C9D900D11248F5C984F6BE072E00E94F4
:10203000A03A009729F489EE9CE060E172E038C094
:1020400080913B0A90913C0A8C9D80018D9D100DE2
:102050009C9D100D1124C8018F5C984F6AE270E0BE
:102060000E94953A9C010097D1F1FF2440E0C801FD
:1020700002C0FE264F5FFC01E40FF11DEF5CF84F3C
:10208000E081EA32B1F73093440A2093430AC90150
:10209000019660E070E00E94CB370E9495352F2DAD
:1020A00030E02617370701F189EE9CE060E572E029
:1020B0000E9448214091140750911507609116071E
:1020C0007091170789EE9CE02AE030E00E94A2227E
:1020D0000E94480F1092410A1092400A92C189EE64
:1020E0009CE065E772E0E4CF8091100790911107C2
:1020F000A0911207B09113078093140790931507CE
:10210000A0931607B09317071CC0C8016AE270E0DD
:102110000E94953A0097A9F089EE9CE065EA72E08A
:102120000E944821409114075091150760911607AD
:102130007091170789EE9CE02AE030E00E94A2220D
:10214000C9CF80913B0A90913C0A8C9D70018D9D76
:10215000F00C9C9DF00C112487010F5C184FC801F6
:1021600067E470E00E94953A9C01009701F190931A
:10217000440A8093430A2F5F3F4F201B310B2E0DE3
:102180003F1DC9018F5C984F60E070E00E94CB3723
:102190000E9495356230710550F48091CD0A8823F4
:1021A00031F489EE9CE060E072E00E949722809119
:1021B0003B0A90913C0A019668E070E00E9461370A
:1021C00090933C0A80933B0A80913D0A90913E0A8D
:1021D000019690933E0A80933D0A1092420A109213
:1021E000410A1092400A1EC04B3311F4B092420AC9
:1021F0008091420A8823B1F480913B0A90913C0A75
:102200008C9DF0018D9DF00D9C9DF00D1124E20F31
:10221000F31FEF5CF84F40832F5F3F4F3093410A2D
:102220002093400A89EE9CE00E94D31F18161906DD
:102230000CF0E2C080913D0A90913E0A08970CF0A4
:10224000DBC089EE9CE00E94FE1F482F80933F0A6E
:102250008A3009F079CE84CE8091400A9091410A6B
:10226000892B09F4A4C0CDC087EA9AE0B70141E008
:1022700050E00E948825019719F08FEF9FEF02C070
:10228000898190E09093CF0A8093CE0A482F809363
:102290003F0A8A3079F08D3069F08A3359F0209105
:1022A000400A3091410A2F35310524F48F5F9F4F4A
:1022B00009F05EC02091B00A3091B10A4091B20A93
:1022C0005091B30A2093C70A3093C80A4093C90AB1
:1022D0005093CA0A8091C30A9091C40AA091C50A7A
:1022E000B091C60A281739074A075B0740F01092D9
:1022F000CB0A89EE9CE065ED72E00E949722809106
:10230000400A9091410A009709F47BC020913B0A52
:1023100030913C0A209FF001219FF00D309FF00D7D
:102320001124E80FF91FEF5CF84F10828091420AE8
:102330008823B9F4F901EF5CF54FD08280913D0A12
:1023400090913E0A019690933E0A80933D0AC901FE
:10235000019668E070E00E94613790933C0A809398
:102360003B0A1092420A1092410A1092400A27C07A
:102370008B3311F4D092420A8091420A8823F9F4F7
:1023800080913B0A90913C0A809FF001819FF00D63
:10239000909FF00D1124E20FF31FEF5CF84F408384
:1023A0002F5F3F4F3093410A2093400A08C07E01BF
:1023B0000894E11CF11C00E610E0DD24D394209188
:1023C000C30A3091C40A4091C50A5091C60A80914F
:1023D000C70A9091C80AA091C90AB091CA0A821787
:1023E0009307A407B50768F480913D0A90913E0ACF
:1023F00008970CF439CF05C08091CB0A882309F0E7
:102400002BCF0F90CF91DF911F910F91FF90EF9005
:10241000DF90CF90BF9008951092CC0A80918F0AE0
:10242000882321F08BE89AE00E94B12481E69AE0AB
:1024300060E045E30E94F533882329F489EE9CE0AF
:1024400068EE72E023C08DE69AE061E67AE041E052
:102450000E94902D882371F48DE69AE061E67AE07F
:1024600040E00E94902D882329F489EE9CE065EFDE
:1024700072E00CC08BE89AE06DE67AE00E94A42737
:10248000882339F489EE9CE068E073E00E9497228B
:10249000089581E08093CC0A0895AF92BF92CF92C5
:1024A000DF92EF92FF920F931F93CF93DF9387E416
:1024B0000E946A0F882309F4B5C20E94880F0E9407
:1024C00095356C31710509F4CBC06D31710554F44B
:1024D00077FD92C76230710594F06430710509F0A0
:1024E0008BC78BC06B35710509F480C26C357105E3
:1024F00009F480C26A35710509F07EC774C20E9472
:10250000890238EDE32E36E0F32E08EC16E0C0E049
:10251000D0E0FE01E65CFA4F80810E946A0F8823BA
:1025200041F10E94880F5B016C01FE01EA5AF94FEC
:102530008081882311F061E002C06091180770E08B
:10254000882777FD8095982F0E94C835F701208154
:102550003181428153810E947C369B01AC01C601CE
:10256000B5010E94C534F80160837183828393832F
:102570000AC0F70180819181A281B381F801808333
:102580009183A283B383219644E050E0E40EF51ECC
:102590000C5F1F4FC430D10509F0BBCF86E40E9409
:1025A0006A0F8823E9F00E94880F0E9495357B010D
:1025B0008C017093090760930807B701882777FD9E
:1025C0008095982F0E94C83520E030E040E050E030
:1025D0000E947836181624F4F0924005E0923F05E8
:1025E0000E94C80B0E942F1C6093550A7093560AD4
:1025F0008093570A9093580A01C780E50E946A0F9A
:10260000882321F4AA24BB24650106C00E94880FF8
:102610000E949A355B016C0183E50E946A0F882352
:1026200061F00E94880F20E030E04AE754E40E9405
:102630007C360E949A355B016C010E942F1C7B0145
:102640008C01EA0CFB1C0C1D1D1D02C00E9489029E
:102650000E942F1C6E157F0580079107B8F3CCC62A
:1026600080913F059091400590930B0780930A0756
:102670008091D8069091D906A091DA06B091DB0638
:102680008093C8069093C906A093CA06B093CB0660
:102690008091DC069091DD06A091DE06B091DF0608
:1026A0008093CC069093CD06A093CE06B093CF0630
:1026B0008091E0069091E106A091E206B091E306D8
:1026C0008093D0069093D106A093D206B093D30600
:1026D0008091E4069091E506A091E606B091E706A8
:1026E0008093D4069093D506A093D606B093D706D0
:1026F0001092400510923F0580913A050E946A0FA2
:10270000882371F480913B050E946A0F882341F46D
:1027100080913C050E946A0F882311F481E001C07A
:1027200080E080933E05882339F480913A050E9429
:102730006A0F882309F466C00F2EF0E0EF2EF0E058
:10274000FF2EF0E00F2FF0E01F2FF02DE092D806C3
:10275000F092D9060093DA061093DB0680E090E051
:10276000A6E9B3EC8093C8069093C906A093CA0665
:10277000B093CB066091D9047091DA048091DB04A8
:102780009091DC040E9495357093400560933F055D
:102790000E94C80BE092D806F092D9060093DA06A0
:1027A0001093DB0680E090E0A0EAB0E48093C806D6
:1027B0009093C906A093CA06B093CB060E94C80B9B
:1027C00080E090E0A0E2B1EC8093C8069093C90647
:1027D000A093CA06B093CB060E94C80BE092D8061D
:1027E000F092D9060093DA061093DB06E092C80651
:1027F000F092C9060093CA061093CB0610924005CA
:1028000010923F0580913E05882339F480913B0565
:102810000E946A0F882309F466C00F2EF0E0EF2EA5
:10282000F0E0FF2EF0E00F2FF0E01F2FF02DE092F0
:10283000DC06F092DD060093DE061093DF0680E0F2
:1028400090E0A6E9B3EC8093CC069093CD06A093DC
:10285000CE06B093CF066091DD047091DE048091C6
:10286000DF049091E0040E949535709340056093D9
:102870003F050E94C80BE092DC06F092DD06009353
:10288000DE061093DF0680E090E0A0EAB0E48093DB
:10289000CC069093CD06A093CE06B093CF060E94AF
:1028A000C80B80E090E0A0E2B1EC8093CC0690935E
:1028B000CD06A093CE06B093CF060E94C80BE0923F
:1028C000DC06F092DD060093DE061093DF06E09250
:1028D000CC06F092CD060093CE061093CF06109250
:1028E000400510923F0580913E05882339F4809180
:1028F0003C050E946A0F882309F462C00F2EF0E0A5
:10290000EF2EF0E0FF2EF0E00F2FF0E01F2FF02D64
:10291000E092E006F092E1060093E2061093E306EF
:1029200080E090E0A6E1B3EC8093D0069093D106CE
:10293000A093D206B093D3066091E1047091E204B3
:102940008091E3049091E4040E94953570934005D2
:1029500060933F050E94C80BE092E006F092E1060A
:102960000093E2061093E30680E090E0A0E0B0E47C
:102970008093D0069093D106A093D206B093D3064D
:102980000E94C80B80E090E0A0E2B1EC8093D006FA
:102990009093D106A093D206B093D3060E94C80BA1
:1029A000E092E006F092E1060093E2061093E3065F
:1029B000E092D006F092D1060093D2061093D3068F
:1029C00080910A0790910B079093400580933F05F3
:1029D0000E942F1C6093550A7093560A8093570AE1
:1029E0009093580A09C51092180706C581E0809394
:1029F000180702C5CAE3D5E008ED16E088810E94F9
:102A00006A0F882339F00E94880FF8016083718370
:102A10008283938321960C5F1F4FF5E0CE33DF074F
:102A200069F7EAC48DE40E946A0F882309F4CBC4D5
:102A30000E94880F0E9495356535710509F481C3A0
:102A400066357105ECF56931710509F40DC16A311E
:102A50007105CCF46631710509F489C067317105DF
:102A60004CF46431710509F46CC06531710509F0ED
:102A7000C3C478C06731710509F47EC0683171053F
:102A800009F0BAC4E8C06C31710509F44CC16D316C
:102A900071054CF46A31710509F4EEC06B317105B2
:102AA00009F0AAC40EC16335710509F425C3643564
:102AB00071050CF025C36235710509F09DC419C379
:102AC0006237710509F49EC363377105ECF469360A
:102AD000710509F4C8C16A3671054CF46C3571058D
:102AE00009F445C36836710509F086C48AC16B369E
:102AF000710509F4F3C26B3671050CF4BAC26D3678
:102B0000710509F079C4F0C16C38710509F492C1FE
:102B10006D3871054CF46337710509F468C3673784
:102B2000710509F069C4BFC3693C710509F4F5C3B7
:102B30006A3C710509F41CC46E3B710509F05CC464
:102B400025C289EE9CE068E173E00E9497228BE841
:102B50009AE060E040E00E94A32889EE9CE068E2F1
:102B600073E048C41092CB0A0E940C1245C4109224
:102B7000CB0A1092CC0A40C48091CC0A882309F475
:102B80003BC41092CB0A87EA9AE00E94B12480915C
:102B9000430A9091440A04966AE270E00E94953AD2
:102BA000FC01009711F0319710824091430A509137
:102BB000440A4C5F5F4F87EA9AE06BE87AE021E0D5
:102BC0000E94EF2B882309F441C089EE9CE066E364
:102BD00073E00E9448216091430A7091440A6C5F3F
:102BE0007F4F89EE9CE00E94482189EE9CE063E4DF
:102BF00073E00E9448214091B90A5091BA0A60914D
:102C0000BB0A7091BC0A89EE9CE02AE030E00E9489
:102C10008C221092C70A1092C80A1092C90A109208
:102C2000CA0A8091B90A9091BA0AA091BB0AB091E0
:102C3000BC0A8093C30A9093C40AA093C50AB093B8
:102C4000C60A89EE9CE06AE473E0D4C389EE9CE096
:102C500068E573E0CFC38091CC0A882309F4CCC324
:102C600081E08093CB0AC8C38091CB0A882309F402
:102C7000C3C31092CB0AC0C38091CC0A882309F445
:102C8000BBC383E50E946A0F882309F4B5C3809112
:102C9000430A9091440A019660E070E04AE050E0F7
:102CA0000E943939AB01BC014093C70A5093C80A4E
:102CB0008093C90A7093CA0A87EA9AE00E94A32304
:102CC0009BC38091CC0A882349F189EE9CE069E698
:102CD00073E00E9448214091C70A5091C80A609150
:102CE000C90A7091CA0A89EE9CE02AE030E00E948D
:102CF000E82189EE9CE06BE773E00E944821409157
:102D0000C30A5091C40A6091C50A7091C60A89EE3F
:102D10009CE02AE030E00E948C226EC389EE9CE0A9
:102D20006DE773E067C38091CC0A882309F464C31C
:102D300087EA9AE00E94B1241092CB0A8091430A5C
:102D40009091440A04966AE270E00E94953AEC0180
:102D5000009709F12091390A30913A0A80E690E013
:102D6000AC01249FC001259F900D349F900D11242C
:102D70008F5C984F6EE470E00E94953A60E270E0DC
:102D80000E94953A9C012F5F3F4F3093440A209355
:102D9000430A219718824091430A5091440A4C5F9C
:102DA0005F4F87EA9AE06BE87AE026E50E94EF2B16
:102DB0008823B9F489EE9CE06DE873E00E94482115
:102DC0006091430A7091440A6C5F7F4F89EE9CE0EA
:102DD0000E94482189EE9CE061EA73E00E9448214C
:102DE0000BC381E08093CD0A89EE9CE063EA73E037
:102DF0000E9448216091430A7091440A6C5F7F4FA2
:102E0000F7C283E50E946A0F882309F4F5C20E9485
:102E1000880F0E949535DC01CB0166E475E04DE337
:102E200050E021E030E00E948E019093460A8093AA
:102E3000450AE2C283E50E946A0F882309F4DCC2D6
:102E40000E94880F0E949535DC01CB0166E475E095
:102E50004DE350E021E030E00E948E0190934A0A59
:102E60008093490AC9C28091470A9091480A66E452
:102E700075E04DE350E021E030E00E94EB019093DB
:102E80004E0A80934D0A80914B0A90914C0A66E459
:102E900075E04DE350E021E030E00E94EB019093BB
:102EA000500A80934F0A89EE9CE065EB73E00E9424
:102EB000482160914D0A70914E0A89EE9CE04AE0EB
:102EC00050E00E94502289EE9CE06BEB73E00E9480
:102ED000482160914F0A7091500A89EE9CE04AE0C7
:102EE00050E00E94AD228AC283E50E946A0F8823C7
:102EF00091F00E94880F0E949535DC01CB0166E4B9
:102F000075E04DE350E021E030E00E948E019093A7
:102F1000460A8093450A0E942F1C7B018C012AC01F
:102F20000E942F1C6E197F09800B910B695E734004
:102F300080409040E8F089EE9CE06FEB73E00E94E7
:102F400048218091470A9091480A66E475E04DE374
:102F500050E021E030E00E94EB01BC0189EE9CE0F2
:102F60004AE050E00E94AD220E942F1C7B018C01A0
:102F70000E9489022091470A3091480A8091450AAF
:102F80009091460A281739075CF236C283E50E9401
:102F90006A0F882391F00E94880F0E949535DC010A
:102FA000CB0166E475E04DE350E021E030E00E94A3
:102FB0008E0190934A0A8093490A0E942F1C7B013C
:102FC0008C014AC00E942F1C6E197F09800B910B47
:102FD000695E734080409040E8F18091470A90918B
:102FE000480A66E475E04DE350E021E030E00E94DD
:102FF000EB0190934E0A80934D0A89EE9CE06FEBB3
:1030000073E00E94482160914D0A70914E0A89EE4A
:103010009CE04AE050E00E94502289EE9CE06BEB7D
:1030200073E00E94482180914B0A90914C0A66E41B
:1030300075E04DE350E021E030E00E94EB01BC017F
:1030400089EE9CE04AE050E00E94AD220E942F1CD5
:103050007B018C010E94890220914B0A30914C0A1D
:103060008091490A90914A0A281739070CF4AACF8F
:10307000C3C183E50E946A0F882329F18091020170
:103080008064809302010E94880F20E030E040E0DD
:1030900050E00E94293588231CF460E070E011C0E4
:1030A0000E94880F20E030E04FE753E40E9478361A
:1030B00018161CF46FEF70E004C00E94880F0E9485
:1030C000953589E008C080910201806480930201F7
:1030D00089E06FEF70E00E94F91C8EC189E060E02A
:1030E00070E00E94F91C809102018F7B80930201A5
:1030F00083C11092590680C181E0809359067CC13A
:1031000083E50E946A0F882399F00E94880F20E0CF
:1031100030E04AE754E40E947C360E949A3560937E
:103120005D0A70935E0A80935F0A9093600A64C19F
:10313000129A419A80910B01806880930B01479A03
:103140005BC183E50E946A0F0E94880F20E030E097
:103150004AE754E40E947C360E949A356093590AEB
:1031600070935A0A80935B0A90935C0A45C1CAE344
:10317000D5E009EB14E088810E946A0F882339F0BA
:103180000E94880FF8016083718382839383219664
:103190000C5F1F4FF5E0CE33DF0769F7C0E0D0E0EA
:1031A0008E010A57194FFE01EB51FB4FDE01A75468
:1031B000BB4F60817181828193812D913D914D91B1
:1031C0005C910E947C369B01AC0160E27CEB8EEB53
:1031D0009CE40E942D350E949A35F801608371832A
:1031E000828393832496C031D105D1F605C189EE3F
:1031F0009CE062EC73E00E94482189EE9CE065E16E
:1032000075E0F8C089EE9CE06CE474E00E9448210F
:103210004091D8065091D9066091DA067091DB068C
:1032200089EE9CE022E030E00E94542389EE9CE08D
:103230006FE474E00E9448214091DC065091DD0665
:103240006091DE067091DF0689EE9CE022E030E0BE
:103250000E94542389EE9CE062E574E00E944821BC
:103260004091E0065091E1066091E2067091E3061C
:1032700089EE9CE022E030E00E94542389EE9CE03D
:1032800065E574E00E9448214091E4065091E5060E
:103290006091E6067091E70689EE9CE022E030E05E
:1032A0000E945723A9C089EE9CE068E574E00E9463
:1032B0004821659903C06FE574E002C062E674E0DE
:1032C00089EE9CE00E94482189EE9CE065E674E06E
:1032D0000E9448218091000181FD03C06FE574E0E8
:1032E00002C062E674E089EE9CE00E94482189EE0B
:1032F0009CE06CE674E00E9448214B9903C06FE5A6
:1033000074E002C062E674E089EE9CE00E9448210D
:1033100089EE9CE063E774E06DC02AE3E22E25E0CD
:10332000F22EC0E0D0E0F70180810E946A0F88236E
:10333000A9F00E94880F8E010A56194FFE01E7542A
:10334000FB4F20813181428153810E947C360E9453
:103350009A35F80160837183828393830894E11C1A
:10336000F11C2496FEE3EF16F5E0FF06E1F644C0FB
:103370009AE3E92E95E0F92EC0E0D0E0F7018081D4
:103380000E946A0F8823A9F00E94880F8E010A55B7
:10339000194FFE01E754FB4F208131814281538157
:1033A0000E947C360E949A35F80160837183828383
:1033B00093830894E11CF11C2496FEE3EF16F5E0DC
:1033C000FF06E1F619C089EE9CE064E774E00E9414
:1033D00097222091390A30913A0A80E690E0289F9E
:1033E000B001299F700D389F700D11246F5C784FCC
:1033F00089EE9CE00E9497220E942E0FDF91CF91D0
:103400001F910F91FF90EF90DF90CF90BF90AF9002
:103410000895CF92DF92EF92FF920F931F93CF9375
:10342000DF9380913D0A90913E0A039714F40E9425
:10343000920F80913D0A90913E0A892B09F48AC02F
:103440008091CD0A882309F46DC02091390A30910A
:103450003A0A80E690E0289F6001299FD00C389FAF
:10346000D00C112441E3E42E47E0F42EEC0CFD1CBB
:10347000C70165E874E00E94A03A009709F041C0D6
:10348000D7010D900020E9F78D01015010400E1971
:103490001F091092A90AC7016EE470E00E94953AD4
:1034A000EC01009731F4F601E00FF11FE05DF84FF9
:1034B0000FC060E270E00E94953A7C010894E11C24
:1034C000F11CCE016AE270E00E94953AFC0131974E
:1034D0008DE081838AE08283138287EA9AE0B701D4
:1034E0000E946F2B8091A90A882331F089EE9CE01D
:1034F00069E874E00E94972289EE9CE060E072E047
:103500000EC087EA9AE00E94692487EA9AE00E9446
:10351000B1241092CD0A89EE9CE06FE974E00E941C
:10352000972202C00E944D1280913D0A90913E0A5E
:10353000019790933E0A80933D0A8091390A9091B9
:103540003A0A019668E070E00E94613790933A0A67
:103550008093390A0E9489020E942F1CE090590A28
:10356000F0905A0A00915B0A10915C0A2091550A6A
:103570003091560A4091570A5091580A621B730BBA
:10358000840B950BE616F70608071907D8F4E11423
:10359000F10401051105B1F01092460A1092450A96
:1035A0002C9810924A0A1092490A809102018F7D4C
:1035B00080930201129A419A80910B018068809356
:1035C0000B01479A0E942F1CE0905D0AF0905E0A62
:1035D00000915F0A1091600A2091550A3091560AB5
:1035E0004091570A5091580A621B730B840B950B3C
:1035F000E616F7060807190768F4E114F104010557
:10360000110541F0129A419A80910B0180688093D4
:103610000B01479ADF91CF911F910F91FF90EF908F
:10362000DF90CF900895CF92DF92EF92FF920F93A9
:103630001F93CF93DF9389EE9CE040E052EC61E072
:1036400070E00E94761F89EE9CE061EB74E00E94BE
:103650009722E1E3FAE011928AE0E933F807D9F71B
:103660000E9A999A80910A01886080930A013B9A88
:103670000A9A129A399A419A80910A018068809335
:103680000A0180910B01806880930B013F9A479A51
:103690006D98759A809101018D7F809301018091D1
:1036A000020182608093020153985B9A249A809170
:1036B0000101806280930101809101018064809307
:1036C00001010C9A579A80910A01806280930A0145
:1036D0003D9AC0E0D0E0FE01E754FB4FE080F1806E
:1036E0000281138176E8C72E76E0D72ECC0EDD1E40
:1036F000FE01EB51FB4FC801B701208131814281AE
:1037000053810E947C369B01AC0160E27CEB8EEB26
:103710009CE40E942D350E949A35F60160837183E6
:103720008283938366E9C62E66E0D62ECC0EDD1E1C
:10373000FE01EB50FB4F60817181828193810E9479
:10374000C835A80197010E947C360E949A35F6017F
:10375000608371838283938356EAC52E56E0D52E0B
:10376000CC0EDD1EFE01EB5FFA4F6081718182811C
:1037700093810E94C835A80197010E947C360E945F
:103780009A35F60160837183828393832496C031D6
:10379000D10509F0A0CF80910A01826080930A01CF
:1037A00080910B01826080930B010E940C12DF91CB
:1037B000CF911F910F91FF90EF90DF90CF900895E0
:1037C0000E94631C0E94131B0E94091AFDCF1F92C6
:1037D0000F920FB60F9211242F933F938F939F93C5
:1037E000AF93BF938091D40A9091D50AA091D60A45
:1037F000B091D70A3091D80A0196A11DB11D232F8F
:103800002D5F2D3720F02D570196A11DB11D20935E
:10381000D80A8093D40A9093D50AA093D60AB0937D
:10382000D70A8091D00A9091D10AA091D20AB09182
:10383000D30A0196A11DB11D8093D00A9093D10A9D
:10384000A093D20AB093D30ABF91AF919F918F9169
:103850003F912F910F900FBE0F901F9018958FB72B
:10386000F8942091D40A3091D50A4091D60A50910B
:10387000D70A8FBFB901CA0108959FB7F894209164
:10388000D00A3091D10A4091D20A5091D30A86B51C
:10389000A89B06C08F3F21F02F5F3F4F4F4F5F4FD8
:1038A0009FBF542F432F322F2227280F311D411D38
:1038B000511D82E0220F331F441F551F8A95D1F7F7
:1038C000B901CA010895789484B5826084BD84B535
:1038D000816084BD85B5826085BD85B5816085BD0B
:1038E000EEE6F0E0808181608083E1E8F0E0108224
:1038F000808182608083808181608083E0E8F0E065
:10390000808181608083E1EBF0E08081846080834E
:10391000E0EBF0E0808181608083E1E9F0E080818C
:1039200082608083808181608083E0E9F0E0808133
:1039300081608083E1EAF0E0808182608083808121
:1039400081608083E0EAF0E0808181608083E1E251
:10395000F1E0808182608083808181608083E0E209
:10396000F1E0808181608083EAE7F0E0808184601B
:103970008083808182608083808181608083808178
:10398000806880831092C1000895382F863308F034
:10399000365320917B00832F86958695869590E0FF
:1039A0008170907043E0880F991F4A95E1F7277F57
:1039B000282B20937B003770809141058295880FDA
:1039C000880F807C832B80937C0080917A008064B8
:1039D00080937A0080917A0086FDFCCF2091780058
:1039E00040917900942F80E030E0282B392BC901D9
:1039F00008951F93CF93DF93182FEB0161E00E948E
:103A0000D41D209709F4C5C0CF3FD10509F4C4C027
:103A1000E12FF0E0E253FE4F8491893009F466C053
:103A20008A30B0F48430F1F1853040F4823059F1BD
:103A3000833070F5813009F0A9C020C0873009F4C7
:103A400043C0883008F048C0863009F09FC034C0B9
:103A50008D3009F473C08E3038F48B3009F45AC0BD
:103A60008C3008F061C04CC08F3009F47BC08F30BF
:103A700008F46EC0803109F089C07EC084B58068CA
:103A800084BDC7BD8DC084B5806284BDC8BD88C0FB
:103A900080918000806880938000D0938900C093DB
:103AA00088007EC080918000806280938000D093E7
:103AB0008B00C0938A0074C08091B00080688093AE
:103AC000B000C093B3006CC08091B000806280935E
:103AD000B000C093B40064C080919000806880936F
:103AE0009000D0939900C09398005AC080919000A4
:103AF000806280939000D0939B00C0939A0050C046
:103B000080919000886080939000D0939D00C09336
:103B10009C0046C08091A00080688093A000D09354
:103B2000A900C093A8003CC08091A000806280934F
:103B3000A000D093AB00C093AA0032C08091A00037
:103B400088608093A000D093AD00C093AC0028C0E3
:103B500080912001806880932001D0932901C09337
:103B600028011EC080912001806280932001D093A3
:103B70002B01C0932A0114C080912001886080939A
:103B80002001D0932D01C0932C010AC0C038D1056B
:103B90001CF4812F60E002C0812F61E00E946D1E45
:103BA000DF91CF911F910895482F50E0CA018857A7
:103BB0009E4FFC0124914E5B5E4FFA018491882355
:103BC000C1F0E82FF0E0EE0FFF1FEC50FF4FA59182
:103BD000B491662341F49FB7F8948C912095822389
:103BE0008C939FBF08959FB7F8948C91822B8C93F0
:103BF0009FBF0895893009F448C08A30A0F484300A
:103C000049F1853040F4823071F18330F8F481302D
:103C100009F062C025C0873071F1883090F5863098
:103C200009F05AC024C08D3009F441C08E3028F408
:103C30008B30A9F18C30B8F52CC08F3009F441C01D
:103C40008F30D8F1803109F047C041C080918000A9
:103C50008F7703C0809180008F7D809380000895CE
:103C600084B58F7702C084B58F7D84BD089580911F
:103C7000B0008F7703C08091B0008F7D8093B0003B
:103C80000895809190008F7707C0809190008F7D7C
:103C900003C080919000877F809390000895809169
:103CA000A0008F7707C08091A0008F7D03C0809116
:103CB000A000877F8093A0000895809120018F77D6
:103CC00003C0809120018F7D809320010895809111
:103CD0002001877F809320010895FF920F931F9307
:103CE000F62E482F50E0CA0182539E4FFC012491CA
:103CF000CA0188579E4FFC0114914E5B5E4FFA013A
:103D000004910023D9F0222319F0822F0E94FA1D7A
:103D1000E02FF0E0EE0FFF1FE25FFE4FA591B491A0
:103D2000FF2031F49FB7F8948C911095812304C043
:103D30009FB7F8948C91812B8C939FBF1F910F910B
:103D4000FF9008951F920F920FB60F920BB60F922D
:103D500011242F933F934F938F939F93EF93FF9350
:103D60004091C600E091590BF0915A0B31969F019A
:103D70002F773070319780915B0B90915C0B2817F7
:103D8000390739F0E752F54F408330935A0B2093AF
:103D9000590BFF91EF919F918F914F913F912F91EF
:103DA0000F900BBE0F900FBE0F901F9018951F9293
:103DB0000F920FB60F920BB60F9211242F933F93D1
:103DC0004F938F939F93EF93FF934091CE00E09199
:103DD000DD0BF091DE0B31969F012F77307031971C
:103DE0008091DF0B9091E00B2817390739F0E35AE7
:103DF000F44F40833093DE0B2093DD0BFF91EF9166
:103E00009F918F914F913F912F910F900BBE0F90EB
:103E10000FBE0F901F9018951F920F920FB60F9222
:103E20000BB60F9211242F933F934F938F939F9331
:103E3000EF93FF934091D600E091610CF091620CFA
:103E400031969F012F77307031978091630C90915C
:103E5000640C2817390739F0EF51F44F4083309341
:103E6000620C2093610CFF91EF919F918F914F9184
:103E70003F912F910F900BBE0F900FBE0F901F9090
:103E800018951F920F920FB60F920BB60F92112436
:103E90002F933F934F938F939F93EF93FF93409173
:103EA0003601E091E50CF091E60C31969F012F77F9
:103EB000307031978091E70C9091E80C2817390702
:103EC00039F0EB59F34F40833093E60C2093E50C27
:103ED000FF91EF919F918F914F913F912F910F9073
:103EE0000BBE0F900FBE0F901F901895CF93DF93CE
:103EF000EC019A01AB01E885F985203081EE3807A5
:103F000080E0480780E0580709F449C081E090E06C
:103F10000A8802C0880F991F0A94E2F7808360E044
:103F200079E08DE390E00E94963721503040404088
:103F30005040CA01B90122E030E040E050E00E9468
:103F40009637EC81FD813083EE81FF812083EA8505
:103F5000FB85208141E050E0CA010E8402C0880F39
:103F6000991F0A94E2F7282B2083EA85FB8520819C
:103F7000CA010F8402C0880F991F0A94E2F7282B08
:103F80002083EA85FB858081088802C0440F551F85
:103F90000A94E2F7842B8083DF91CF9108951082F9
:103FA00020E130E0CECFDC011296ED91FC91139729
:103FB000E058FF4F2191319180819181281B390B6D
:103FC0002F773070C9010895DC011296ED91FC91B4
:103FD0001397EE57FF4F2081318192918291E058E3
:103FE000F0408217930719F42FEF3FEF05C0E20F5F
:103FF000F31F8081282F30E0C9010895DC0112965B
:10400000ED91FC911397DF01AE57BF4F2D913C917D
:104010001197E058FF4F80819181E058F04082175E
:10402000930719F42FEF3FEF0BC0E20FF31F8081CE
:104030002F5F3F4F2F7730702D933C93282F30E028
:10404000C9010895DC011296ED91FC911397EE578A
:10405000FF4F80819181929382930895FC01A08506
:10406000B18521898C9190E0022E02C095958795AB
:104070000A94E2F780FFF6CF0484F585E02D608393
:1040800008952EE336E03093EA0C2093E90C89ED95
:104090009AE09093EC0C8093EB0C85EC90E090937D
:1040A000EE0C8093ED0C84EC90E09093F00C8093F8
:1040B000EF0C80EC90E09093F20C8093F10C81EC8B
:1040C00090E09093F40C8093F30C86EC90E0909346
:1040D000F60C8093F50CE4E0E093F70C73E070933A
:1040E000F80C67E06093F90C55E05093FA0C41E04E
:1040F0004093FB0C3093FD0C2093FC0C8DE59BE072
:104100009093FF0C8093FE0C8DEC90E09093010D4A
:104110008093000D8CEC90E09093030D8093020D42
:1041200088EC90E09093050D8093040D89EC90E06D
:104130009093070D8093060D8EEC90E09093090DFF
:104140008093080DE0930A0D70930B0D60930C0D96
:1041500050930D0D40930E0D3093100D20930F0DC5
:1041600081EE9BE09093120D8093110D85ED90E010
:104170009093140D8093130D84ED90E09093160DA1
:104180008093150D80ED90E09093180D8093170D9E
:1041900081ED90E090931A0D8093190D86ED90E0DB
:1041A00090931C0D80931B0DE0931D0D70931E0DBD
:1041B00060931F0D5093200D4093210D3093230DDC
:1041C0002093220D85E69CE09093250D8093240D8D
:1041D00085E391E09093270D8093260D84E391E091
:1041E0009093290D8093280D80E391E090932B0DFF
:1041F00080932A0D81E391E090932D0D80932C0DF7
:1042000086E391E090932F0D80932E0DE093300D77
:104210007093310D6093320D5093330D4093340DF4
:1042200008950F931F93CF93DF938C01EB0109C087
:104230002196D801ED91FC910190F081E02DC8010B
:10424000199568816623A1F7DF91CF911F910F9196
:104250000895EF92FF920F931F93CF93DF938C01FA
:104260007B01EA010CC0D7016D917D01D801ED9170
:10427000FC910190F081E02DC801199521972097BC
:1042800091F7DF91CF911F910F91FF90EF900895DB
:10429000DC01ED91FC910280F381E02D19950895E8
:1042A0002F923F924F925F926F927F928F929F9246
:1042B000AF92BF92CF92DF92EF92FF920F931F9334
:1042C000DF93CF93CDB7DEB7A0970FB6F894DEBFDC
:1042D0000FBECDBF1C016A017B014115510561056F
:1042E000710549F440E350E060E070E020E030E028
:1042F0000E941A2254C0882499245401422E552425
:104300006624772401E010E00C0F1D1F080D191D15
:10431000C701B601A30192010E947437F8016083BE
:104320000894811C911CA11CB11CC701B601A301FA
:1043300092010E947437C901DA016C017D01C11438
:10434000D104E104F104F1F681E0E82EF12CEC0E49
:10435000FD1EE80CF91C3E010894611C711CD5017E
:10436000C4010197A109B1096C01C818D90814C08A
:10437000F601EE0DFF1D40814A3010F4405D01C092
:10438000495C50E060E070E0C10120E030E00E9454
:104390001A220894E108F1086E147F0449F7A096E8
:1043A0000FB6F894DEBF0FBECDBFCF91DF911F9146
:1043B0000F91FF90EF90DF90CF90BF90AF909F90C4
:1043C0008F907F906F905F904F903F902F900895C7
:1043D000DC012115310541F4ED91FC910190F08152
:1043E000E02D642F199508950E9450210895EF92B1
:1043F000FF920F931F939A017B0100E010E0B80138
:10440000A7010E94E8211F910F91FF90EF9008955E
:10441000EF92FF920F931F939A01E62EFF2400E084
:1044200010E0B801A7010E94E8211F910F91FF90B1
:10443000EF900895EF92FF920F931F93CF93DF9326
:10444000EC017A018B012115310541F4E881F981F4
:104450000190F081E02D642F19951BC02A303105A1
:10446000B1F477FF10C04DE250E060E070E020E072
:1044700030E00E941A2210950095F094E094E11C1F
:10448000F11C011D111DCE01B801A7012AE00E94F7
:104490005021DF91CF911F910F91FF90EF900895E0
:1044A000EF92FF920F931F937B019A010027F7FC75
:1044B0000095102FB801A7010E941A221F910F9199
:1044C000FF90EF900895EF92FF920F931F939A0140
:1044D000E62EFF2400E010E0B801A7010E941A2296
:1044E0001F910F91FF90EF9008950F931F938C01F0
:1044F0004DE050E060E070E020E030E00E941A22E1
:10450000C8014AE050E060E070E020E030E00E9446
:104510001A221F910F9108950F931F938C010E94EF
:10452000E821C8010E9475221F910F9108950F93F1
:104530001F938C010E944821C8010E9475221F917F
:104540000F9108950F931F938C010E941A22C801A6
:104550000E9475221F910F910895CF92DF92EF92E2
:10456000FF920F931F938C016B019A01EE24D7FCED
:10457000E094FE2CB701A6010E941A22C8010E94F5
:1045800075221F910F91FF90EF90DF90CF900895CB
:104590009F92AF92BF92CF92DF92EF92FF920F93D2
:1045A0001F93CF93DF93EC017A018B01922ECB0105
:1045B000BA0120E030E040E050E00E942935882335
:1045C0006CF4CE014DE250E060E070E020E030E0BD
:1045D0000E941A2217FB109517F9109520E030E081
:1045E00040E05FE3AA240BC0CA01B90120E030E03B
:1045F00040E251E40E942D359B01AC01A394A91423
:1046000098F3C801B7010E94C5345B016C010E9498
:104610009A357B018C01CE01B801A7012AE030E078
:104620000E94E821992029F0CE0167EB74E00E94F6
:104630004821C801B7010E94C6359B01AC01C601E3
:10464000B5010E94C43422C020E030E040E251E4D1
:104650000E947C367B018C010E9495355B016C01C8
:10466000CC24B7FCC094DC2CCE01B601A5012AE015
:1046700030E00E941A22C601B5010E94C8359B0194
:10468000AC01C801B7010E94C4349A949920E1F6A4
:10469000DF91CF911F910F91FF90EF90DF90CF901E
:1046A000BF90AF909F9008950E94C82208950F93E5
:1046B0001F938C010E94C822C8010E9475221F917D
:1046C0000F910895CF93DF93EC01DB0180E090E040
:1046D00020E2FD01E80FF91F208301968B30910540
:1046E000C1F757E040E021C02E3219F084EE90E08F
:1046F00007C05A3019F15AE048E017C03217F1F0FC
:10470000FC01019634913323C9F75417B8F02132D4
:10471000A8F02F3798F4822F81568A3108F420525E
:10472000FD01E40FF11D20834F5F29912223E1F663
:1047300090E08C91803219F091E001C090E0892FD7
:10474000DF91CF9108956F927F928F929F92AF9257
:10475000BF92CF92DF92EF92FF920F931F93CF936E
:10476000DF93EC017A018B012C81222309F480C0B4
:104770008A899B89AC89BD8984179507A607B707E5
:1047800008F476C085C0E114F1040105110549F46F
:104790001D821E821F82188619861A861B861C8619
:1047A00065C029853A854B855C85EA8DFB8D8585BD
:1047B00090E00996215030404040504039014A0174
:1047C000082E04C096948794779467940A94D2F73D
:1047D0002F5F3F4F4F4F5F4F0894E108F1080109E9
:1047E00011095701680104C0D694C794B794A794DF
:1047F0008A95D2F70894E11CF11C011D111DA61425
:10480000B704C804D90428F0211531054105510524
:1048100049F48E899F89A88DB98D8D839E83AF833E
:10482000B88716C0A618B708C808D90811C04D81A6
:104830005E816F8178858A8D9B8D94010E94712F96
:104840000894A108B108C108D108882331F410C028
:1048500085E0882E912C8C0E9D1EA114B104C104FC
:10486000D10429F7E986FA860B871C8781E001C00D
:1048700080E0DF91CF911F910F91FF90EF90DF903B
:10488000CF90BF90AF909F908F907F906F90089542
:10489000223009F078CFE6CFCF93DF93EC01462F9B
:1048A0006D857E858F8598890E94552D882319F402
:1048B00020E030E00AC08989282F30E095E0220FFF
:1048C000331F9A95E1F7295C324FC901DF91CF91EF
:1048D00008950F931F93CF93DF938C01FC01848184
:1048E0008823C9F1838187FF33C0C80161E00E943A
:1048F0004C24EC01009779F1F8018481823040F476
:1049000082899389A489B5898C8F9D8FAE8FBF8F43
:10491000F80186899789A08DB18D9B8F8A8FCD01F3
:10492000AA27BB279D8B8C8BE091350DF091360D1E
:10493000309751F0BE016A5E7F4FCE0148961995BF
:10494000888D998D9B8B8A8BF80183818F778383E8
:104950000E94F62C01C080E0DF91CF911F910F9152
:104960000895CF93DF93EC010E946924882311F00E
:104970001C8281E0DF91CF9108956F927F928F9298
:104980009F92AF92BF92CF92DF92EF92FF920F93DE
:104990001F93DF93CF9300D00F92CDB7DEB77C018A
:1049A0005A016B01DC0114968C911497813009F047
:1049B0008FC013968C9181FF8BC09EC00097A1057C
:1049C000B10511F481E085C0F701618472848384AC
:1049D0009484C701B601A5010E94A323882309F48A
:1049E00077C0D7015A968D919C915B97A114B10421
:1049F000C104D10489F456964D915D916D917C91DD
:104A000059970E94E42F882309F462C0F701168A9F
:104A1000178A108E118E3DC0D70115964D915D916C
:104A20006D917C9118979E012F5F3F4F0E94712FCF
:104A3000882309F44DC0D7015A96ED91FC915B97FC
:104A400049815A816B817C818789803129F088EF87
:104A50009FEFAFEFBFE004C088EF9FEFA0E0B0E0B2
:104A6000481759076A077B07A0F4CF010E94E42F7B
:104A7000882371F1F7014581568167817085828DA8
:104A8000938D0FEF1FEF2FEF3FE00E94D52E88236D
:104A9000F9F0D7015296AD92BD92CD92DC92559726
:104AA00013968C911397806813968C93C7010E947C
:104AB0006924882369F0B601A5016A147B048C047B
:104AC0009D0410F4B401A301C7010E94A32301C0F7
:104AD00080E00F900F900F900F90CF91DF911F917A
:104AE0000F91FF90EF90DF90CF90BF90AF909F908D
:104AF0008F907F906F900895F70182899389A489A0
:104B0000B58984179507A607B70708F057CFE0CFF8
:104B10002F923F924F925F926F927F928F929F92CD
:104B2000AF92BF92CF92DF92EF92FF920F931F93BB
:104B3000CF93DF93EC012A018C81882309F4C6C04E
:104B40008B8180FFC3C0D8C025014E185F084B0180
:104B500075E0272E312C2C0E3D1E3201B1C0298567
:104B60003A854B855C856FEFA62E61E0B62EA222BA
:104B7000B3228C8179018A0199E016950795F79403
:104B8000E7949A95D1F7EA8DFB8D823049F4428DF6
:104B9000538D648D758D4E0D5F1D601F711F3FC05D
:104BA000D480DA94DE20A114B104D9F4DD20C9F454
:104BB000211531054105510549F48E899F89A88D3C
:104BC000B98D8D839E83AF83B8870BC04D815E8185
:104BD0006F817885CF0191010E94712F882309F49C
:104BE00075C0EA8DFB8D4D815E816F817885425065
:104BF000504060407040058404C0440F551F661F3C
:104C0000771F0A94D2F786859785A089B189480FC6
:104C1000591F6A1F7B1F4D0D511D611D711D80E0C5
:104C200092E08A199B0963018615970508F46C01C7
:104C30008B8186FD06C080E0C81682E0D80609F0A8
:104C400073C08091420590914305A0914405B091B5
:104C50004505481759076A077B0709F465C0809125
:104C6000370F9091380F9501860174010E944833E7
:104C7000882361F18C0C9D1C12C09501295C324F78
:104C8000A9014C0D5D1DD401F90102C081918D93E4
:104C9000E417F507D9F7E21BF30B8E0E9F1E960162
:104CA00040E050E089859A85AB85BC85820F931FD3
:104CB000A41FB51F89879A87AB87BC876C187D08AE
:104CC0006114710409F04BCFA20102C04FEF5FEFF6
:104CD000CA01DF91CF911F910F91FF90EF90DF906C
:104CE000CF90BF90AF909F908F907F906F905F908C
:104CF0004F903F902F900895AA88BB88CC88DD887C
:104D0000E984FA840B851C859A0140E050E0D601C5
:104D1000C5018E199F09A00BB10B82179307A40739
:104D2000B50708F411CF13CFCB01BA0140E00E94C0
:104D3000552D882309F0A1CFC9CFCF92DF92EF92F2
:104D4000FF920F931F93DF93CF930F92CDB7DEB7F0
:104D50006C01FC018481823070F0E184F28403856F
:104D60001485C601BE016F5F7F4F41E050E00E9495
:104D70008825019769F020E030E0C9010F90CF91BC
:104D8000DF911F910F91FF90EF90DF90CF900895EA
:104D9000F60181859285A385B4854F96A11DB11D2D
:104DA00081879287A387B487F5E016950795F794D6
:104DB000E794FA95D1F78E2D8F70282F30E0E5E03B
:104DC000220F331FEA95E1F7295C324FD6CFDF93EC
:104DD000CF9300D0CDB7DEB7282F6AE00E945537B9
:104DE000805D8983822F0E945537905D9A831B8254
:104DF00089EE9CE0BE016F5F7F4F0E9448210F90BB
:104E00000F900F90CF91DF910895EF92FF920F9343
:104E10001F938C01812F8695869586950E94E726A3
:104E2000B9EEEB2EBCE0FB2EC7016AE340E050E098
:104E30000E946322C801A5E096958795AA95E1F79F
:104E40008F730E94E726C7016AE340E050E00E94AA
:104E500063220F711070802F880F0E94E7261F9128
:104E60000F91FF90EF900895EF92FF920F931F9391
:104E70007C0109EE1CE0BC01672F7727669564541E
:104E8000784FC8014AE050E00E94F721C8016DE266
:104E900040E050E00E946322C70125E09695879587
:104EA0002A95E1F78F700E94E726C8016DE240E085
:104EB00050E00E9463228E2D8F710E94E7261F9181
:104EC0000F91FF90EF900895DF92EF92FF920F9372
:104ED0001F93CF93DF937C01D62EEC0110E000E00E
:104EE0008881803291F0083041F489EE9CE06EE2D6
:104EF00040E050E00E9463221F5F89EE9CE06881E1
:104F000040E050E00E9408221F5F0F5F21960B30A7
:104F100039F7F70183858871803161F489EE9CE06F
:104F20006FE203C089EE9CE060E240E050E00E9446
:104F300063221F5F1D15B0F3DF91CF911F910F9179
:104F4000FF90EF90DF9008950F931F93CF93DF931F
:104F5000EC018B018C81882309F041C0FB0187891A
:104F60008031B1F482E08C831E8A1F8A188E198EDC
:104F7000808D918DA0E0B0E045E0880F991FAA1FB9
:104F8000BB1F4A95D1F78A8B9B8BAC8BBD8B15C011
:104F9000803229F583E08C83FB01428D538D648D33
:104FA000758D4E8B5F8B688F798F9E012E5E3F4F84
:104FB000C8010E943D30882391F01B8F0A8F81E049
:104FC0008B831D821E821F82188619861A861B8675
:104FD0001C861D861E861F86188A198A01C080E0DD
:104FE000DF91CF911F910F9108951F93CF93DF937E
:104FF000EC01142FE62FF0E075E0EE0FFF1F7A951D
:10500000E1F7E95CF24F8385817121F0842F82748E
:1050100009F054C0698B8091420590914305A0919D
:105020004405B09145058D879E87AF87B88B8489ED
:105030009589A0E0B0E0BC0155274427828D938D6F
:10504000A0E0B0E0482B592B6A2B7B2B4E8B5F8B5B
:10505000688F798F838590E088719070009751F404
:10506000848D958DA68DB78D8A8B9B8BAC8BBD8BDC
:1050700081E00CC0409711F59E012E5E3F4F8A8D56
:105080009B8D0E943D308823C9F084E08C83812F62
:105090008F708B831D821E821F82188619861A8646
:1050A0001B861C8616FD02C081E009C0CE0140E0CF
:1050B00050E060E070E00E94BD2401C080E0DF911C
:1050C000CF911F910895DF92EF92FF920F931F935C
:1050D000CF93DF938C01EB017A01D22EFC01848106
:1050E000882341F5822F8073803321F18A8D9B8D37
:1050F000938F828FE5E0440F551FEA95E1F760E05A
:1051000070E0CE010E94A3238823A1F0CE010E946B
:105110009D26FC01009771F08081882359F0853E1F
:1051200049F08E3239F06E2D6F70C8014D2D0E94FE
:10513000F52701C080E0DF91CF911F910F91FF9083
:10514000EF90DF9008952F923F924F925F926F926F
:105150007F928F929F92AF92BF92CF92DF92EF9207
:10516000FF920F931F93DF93CF93CDB7DEB76E9768
:105170000FB6F894DEBF0FBECDBF6C016D8FE42E6D
:10518000FC011582168217821086118612861386FC
:105190001486862F90E063E0462E512C4822592237
:1051A00051E0652E712C6822792244E0842E912CE6
:1051B000882299221E010894211C311C2E2D2E5F5D
:1051C0002E8F32E0A32EB12CA822B92289C0F8017B
:1051D0008081882309F48BC0853E09F481C08E321A
:1051E00009F47EC0838583FD7BC0FF2408C089EE5F
:1051F0009CE060E240E050E00E946322F394FE14E1
:10520000B1F74114510411F460E001C06EE0C8012F
:105210000E9464276114710489F0F801808D918DDA
:105220000E94342789EE9CE060E240E050E00E945A
:105230006322F801868997890E940527F8018385F2
:1052400088718031A9F0A114B10491F089EE9CE03D
:1052500060E240E050E00E946322F801448D558DE9
:10526000668D778D89EE9CE02AE030E00E94E8218F
:1052700089EE9CE00E9475228114910489F1F80165
:1052800083858871803161F5F60181859285A385DA
:10529000B48525E0B695A795979587952A95D1F77A
:1052A0008C0180E596E09A8389831D82A801415094
:1052B0005040C101B60121E00E946328882329F0F3
:1052C000C1016D8D4E8D0E94A32885E0000F111F36
:1052D0008A95E1F7A80160E070E0C6010E94A3236F
:1052E000C6010E949D268C01009709F070CF6E9632
:1052F0000FB6F894DEBF0FBECDBFCF91DF911F91E7
:105300000F91FF90EF90DF90CF90BF90AF909F9064
:105310008F907F906F905F904F903F902F90089567
:10532000CF93DF93EC019C012B5F3F4F8A8D9B8DC8
:1053300041E050E060E070E00E94AC308823A1F0D2
:105340008E899F89A88DB98D0097A105B10559F463
:105350008D819E81AF81B8858E8B9F8BA88FB98FF1
:105360008B8180688B8381E0DF91CF9108952F92AC
:105370003F924F925F927F928F929F92AF92BF9295
:10538000CF92DF92EF92FF920F931F93DF93CF9311
:1053900000D000D0CDB7DEB76C01162F072F5E838B
:1053A0004D83DC0114968C911497813009F075C1FE
:1053B00013968C9181FF71C18FC1F6014289538987
:1053C0006489758981859285A385B485841795073D
:1053D000A607B70731F0C6010E94A323882309F46A
:1053E0005CC1812F902F9C0129012D803E8019C125
:1053F000D6015A96ED91FC915B97DA01C90119E04B
:10540000B695A795979587951A95D1F774807A9454
:1054100078227FEF872E71E0972E822293227720C9
:1054200009F050C08114910409F04CC0D6011596C2
:105430004D915D916D917C911897411551056105D4
:10544000710581F456968D919D910D90BC91A02D82
:105450000097A105B10559F1F60185839683A783CD
:10546000B08730C0CF019E012F5F3F4F0E94712F48
:10547000882319F440E050E016C129813A814B811C
:105480005C81D6015A96ED91FC915B9787898031BA
:1054900029F088EF9FEFAFEFBFE004C088EF9FEFE8
:1054A000A0E0B0E0281739074A075B0730F0C601D3
:1054B0000E949029882331F4F0C0F60125833683B9
:1054C0004783508780E092E088199909510182153D
:1054D000930508F45C01D6015A96ED91FC915B9717
:1054E0001596ED90FD900D911C9118978EEF9FEF02
:1054F000AFEFBFEFE80EF91E0A1F1B1F058404C0A3
:10550000EE0CFF1C001F111F0A94D2F786859785A9
:10551000A089B189E80EF91E0A1F1B1FE70CF11CB8
:10552000011D111D90E0A91692E0B90651F5809178
:10553000420590914305A0914405B09145058E1513
:105540009F05A007B10761F48FEF9FEFAFEFBFEFAB
:105550008093420590934305A0934405B09345057D
:105560008091370F9091380FB801A70192010E94E6
:10557000EB32882309F491C0A0E0B2E04A0E5B1E32
:105580003EC08114910409F5F601218532854385D9
:10559000548582899389A489B589281739074A07D0
:1055A0005B0798F00E94F62C882309F476C0E092FD
:1055B0004205F09243050093440510934505809100
:1055C000390F81608093390F08C0C801B70141E0ED
:1055D0000E94552D882309F460C09401295C324F44
:1055E000A9014A0D5B1DD201F90102C08D91819381
:1055F000E417F507D9F7E21BF30B4E0E5F1E2A18CE
:105600003B08950140E050E0F60181859285A38535
:10561000B485820F931FA41FB51F81879287A3872C
:10562000B487D60119962D913D914D915C911C97AF
:105630002114310409F0DCCE52968D919D910D908C
:10564000BC91A02D82179307A407B50748F4F60173
:10565000228B338B448B558B83818068838311C06D
:105660008091350D9091360D892B59F08D819E8159
:10567000892B39F0D60113968C9113978068139675
:105680008C93F601838183FF05C0C6010E946924C3
:10569000882319F04D815E8106C081E0D601129603
:1056A0008C934FEF5FEFCA0126960FB6F894DEBFDA
:1056B0000FBECDBFCF91DF911F910F91FF90EF9063
:1056C000DF90CF90BF90AF909F908F907F905F9032
:1056D0004F903F902F90089582FD6FCE82CEDB01D8
:1056E0000D900020E9F71197A61BB70BAD010E94A2
:1056F000B7290895DF93CF930F92CDB7DEB76983B3
:10570000BE016F5F7F4F41E050E00E94B7290F90CC
:10571000CF91DF910895DF92EF92FF920F931F9345
:10572000CF93DF93EC010E949029882309F44EC0A7
:10573000EA8DFB8DED80FE800F8118858EEF9FEF47
:10574000AFEFBFEFE80EF91E0A1F1B1F058404C050
:10575000EE0CFF1C001F111F0A94D2F78685978557
:10576000A089B189E80EF91E0A1F1B1FD480089476
:10577000E108F108010911090BC0C801B7016D0D5D
:10578000711D811D911D0E94312D8823F9F0DA943D
:10579000DD2099F7EA8DFB8D20E032E040E050E01B
:1057A000058404C0220F331F441F551F0A94D2F7EB
:1057B0008A899B89AC89BD89820F931FA41FB51F5D
:1057C0008A8B9B8BAC8BBD8B81E001C080E0DF912D
:1057D000CF911F910F91FF90EF90DF9008956F92FE
:1057E0007F928F929F92AF92BF92CF92DF92EF9271
:1057F000FF920F931F93DF93CF93CDB7DEB72B9715
:105800000FB6F894DEBF0FBECDBF5C016B01822ED8
:10581000DC0114968C91882309F0D2C0CA018E0154
:105820000F5F1F4FB8010E946223882309F4C8C08C
:10583000F601828D938DD5015B969C938E935A973A
:105840001582168217821086D60119961D921D9216
:105850001D921C921C979924380141C0C6010E94D8
:105860009D26FC01009709F4ABC085E016950795CD
:10587000F794E7948A95D1F71E2D1F7080818823B5
:1058800011F0853ED1F4992091F4D50151961C93E5
:105890005197209142053091430540914405509124
:1058A00045051D962D933D934D935C9350978081B4
:1058B000882399F49924939421C0C301BF014BE03C
:1058C00050E00E94883A009751F4882D807380330D
:1058D00009F476C0C501612F6FC099249394F60135
:1058E000E184F2840385148582899389A489B5892A
:1058F000E816F9060A071B0708F4B0CF882D827155
:10590000823109F05DC0992041F0C50161E00E943B
:105910004C248C01009789F453C0D60114968C91C5
:10592000823009F44DC0C6010E948B2B882309F4F4
:1059300047C0F501118A07E31DE080E2D8011D92FE
:105940008A95E9F7D801FE0131968BE001900D921E
:105950008150E1F7E091350DF091360D309739F037
:10596000B801625F7F4FC8014096199509C081E276
:1059700098E2F801918B808B80E098E0978786878A
:10598000D80150968D919C91519753969C938E93EC
:10599000529759969C938E9358971E968D919C91F1
:1059A0001F9757969C938E9356970E94F62C8823A8
:1059B00039F0C501F5016189482D0E94F52701C024
:1059C00080E02B960FB6F894DEBF0FBECDBFCF910F
:1059D000DF911F910F91FF90EF90DF90CF90BF90DC
:1059E000AF909F908F907F906F9008958091390F26
:1059F000882399F1409142055091430560914405F7
:105A0000709145058091370F9091380F27E33DE065
:105A10000E94EB32882319F140913A0F50913B0FCD
:105A200060913C0F70913D0F411551056105710565
:105A300091F08091370F9091380F27E33DE00E945D
:105A4000EB32882361F010923A0F10923B0F1092C4
:105A50003C0F10923D0F1092390F81E0089580E0C5
:105A60000895EF92FF920F931F937B018C010E9488
:105A7000F62C8823A9F0E7E3FDE011928FE0E733ED
:105A8000F807D9F7E0924205F092430500934405E8
:105A9000109345058091390F81608093390F81E023
:105AA0001F910F91FF90EF900895DF92EF92FF9278
:105AB0000F931F937B018C01D42E8091420590910E
:105AC0004305A0914405B09145058E159F05A0079B
:105AD000B107C1F00E94F62C8823D9F08091370FCE
